:100000000C9462000C948A000C948A000C948A0070
:100010000C948A000C948A000C948A000C948A0038
:100020000C948A000C948A000C948A000C94E001D1
:100030000C948A000C948A000C948A000C948A0018
:100040000C9496010C948A000C948A000C948A00FB
:100050000C948A000C948A000C948A000C948A00F8
:100060000C948A000C948A000000000024002700F1
:100070002A0000000000250028002B0000000008D6
:10008000000201000003040700000000000000005F
:1000900000000000230026002900040404040404D6
:1000A0000404020202020202030303030303010227
:1000B00004081020408001020408102001020408F6
:1000C00010207F0411241FBECFEFD8E0DEBFCDBFCC
:1000D00011E0A0E0B1E0E6E7FCE002C005900D927F
:1000E000A030B107D9F721E0A0E0B1E001C01D9236
:1000F000A233B207E1F710E0C2E6D0E004C02197D6
:10010000FE010E943306C136D107C9F70E94E10201
:100110000C9439060C940000E0910B01EC3088F54A
:1001200040910C0128E830E0241B310947FD33954C
:10013000220F331F220F331F8217930784F0409141
:100140000D0128E532E0241B310947FD3395220FCC
:10015000331F220F331F821793070CF49C01225088
:100160003109220F331F4FB7F8948E2F90E0FC0116
:10017000EE0FFF1FE80FF91FE25FFE4F328321836E
:100180004FBF089590E0FC01E458FF4F2491FC011B
:10019000E255FF4F3491FC01E656FF4FE491EE2308
:1001A000C9F0222339F0233001F1A8F4213019F1EC
:1001B000223029F1F0E0EE0FFF1FEE58FF4FA5911E
:1001C000B4918FB7F894EC91611126C030953E231D
:1001D0003C938FBF08952730A9F02830C9F0243010
:1001E00049F7809180008F7D03C0809180008F77D8
:1001F00080938000DFCF84B58F7784BDDBCF84B55B
:100200008F7DFBCF8091B0008F778093B000D2CFED
:100210008091B0008F7DF9CF3E2BDACFCF93DF9363
:1002200090E0FC01E255FF4F249186569F4FFC0160
:1002300084918823D1F090E0880F991FFC01E85940
:10024000FF4FA591B491FC01EE58FF4FC591D49199
:1002500061110EC09FB7F8948C91E22FE0958E2328
:100260008C932881E223E8839FBFDF91CF9108958B
:100270008FB7F894EC91E22BEC938FBFF6CF3FB79A
:10028000F8948091070190910801A0910901B09123
:100290000A0126B5A89B05C02F3F19F00196A11DA4
:1002A000B11D3FBFBA2FA92F982F8827BC01CD01C0
:1002B000620F711D811D911D42E0660F771F881F1F
:1002C000991F4A95D1F708958F929F92AF92BF924E
:1002D000CF92DF92EF92FF924B015C010E943F01AF
:1002E0006B017C010E943F016C197D098E099F09F9
:1002F000683E734081059105A8F321E0821A9108B8
:10030000A108B10888EEC80E83E0D81EE11CF11CDC
:1003100081149104A104B10429F7FF90EF90DF90BC
:10032000CF90BF90AF909F908F9008951F920F92A3
:100330000FB60F9211242F933F938F939F93AF93F8
:10034000BF938091030190910401A0910501B091A8
:1003500006013091020123E0230F2D3758F5019655
:10036000A11DB11D2093020180930301909304010C
:10037000A0930501B09306018091070190910801B7
:10038000A0910901B0910A010196A11DB11D8093B0
:10039000070190930801A0930901B0930A01BF914E
:1003A000AF919F918F913F912F910F900FBE0F9022
:1003B0001F90189526E8230F0296A11DB11DD2CFDC
:1003C0001F920F920FB60F9211242F933F934F93CA
:1003D0005F936F937F938F939F93AF93BF93CF93CD
:1003E000DF93EF93FF9380910101C0910001D0E072
:1003F00087FF24C010928500109284008091010133
:100400008F5F8093010180910101082E000C990BF0
:100410008C179D0724F4809101018C30C4F18091E8
:10042000840090918500049680349C4908F47AC039
:100430008091840090918500049676C0809101019E
:10044000082E000C990B8C179D07C4F6E091010152
:100450008E2FEE0F990BFC01EE0FFF1FE80FF91F17
:10046000E25FFE4F808186FFC9CFE09101018E2FB0
:10047000EE0F990BFC01EE0FFF1FE80FF91FE25F73
:10048000FE4F808160E08F730E94C200B7CF209141
:10049000840030918500E09101018E2FEE0F990BC1
:1004A000FC01EE0FFF1FE80FF91FE25FFE4F818195
:1004B0009281820F931F9093890080938800E0912E
:1004C00001018E2FEE0F990BFC01EE0FFF1FE80FBD
:1004D000F91FE25FFE4F808186FF11C0E0910101AC
:1004E0008E2FEE0F990BFC01EE0FFF1FE80FF91F87
:1004F000E25FFE4F808161E08F730E94C200FF9136
:10050000EF91DF91CF91BF91AF919F918F917F91AB
:100510006F915F914F913F912F910F900FBE0F9070
:100520001F90189580E49CE990938900809388003F
:100530008FEF80930101E3CFCF92DF92EF92FF9292
:100540000F931F93E82FF92F05C0015011092109BE
:10055000310961F1908196239417B9F305C00150D8
:1005600011092109310911F1908196239413F7CFD4
:10057000C12CD12CE12CF12C0AC08FEFC81AD80A5B
:10058000E80AF80A0C151D052E053F0579F0808153
:100590008623841791F36C2D7D2D8E2D9F2D1F9119
:1005A0000F91FF90EF90DF90CF90089560E070E0A2
:1005B00080E090E01F910F91FF90EF90DF90CF903F
:1005C0000895789484B5826084BD84B5816084BDCB
:1005D00085B5826085BD85B5816085BD80916E00E1
:1005E000816080936E001092810080918100826012
:1005F000809381008091810081608093810080914F
:1006000080008160809380008091B100846080933D
:10061000B1008091B00081608093B00080917A0039
:10062000846080937A0080917A00826080937A005F
:1006300080917A00816080937A0080917A0080684E
:1006400080937A001092C10080910B018C3008F0E9
:1006500051C061E089E00E940E0180910B01282FBA
:1006600030E0F901EE0FFF1FE20FF31FE25FFE4FD4
:100670009081907C9960908310920C0110920D01F2
:100680002CE0622F0E942006829FB001112430E0EE
:1006900020E0AB01420F531FFA01EE0FFF1FE40FE2
:1006A000F51FE25FFE4F908196FD16C02F5F3F4F12
:1006B0002C30310571F781110FC01092800082E05B
:1006C000809381001092850010928400B19A8091ED
:1006D0006F00826080936F00E0910B018E2F90E09D
:1006E000FC01EE0FFF1FE80FF91FE25FFE4F808154
:1006F0008064808361E08AE00E940E0160E08BE00C
:100700000E940E0161E08CE00E940E01412C54E039
:10071000552E612C712C63E2262E312C79EBE72EBD
:1007200070E0F72EE8E8AE2EB12CF8E58F2EF2E05F
:100730009F2EA0E0CA2EA0E0DA2E20E420937C00B9
:1007400080917A00806480937A0080917A0086FD9F
:10075000FCCFA091780080917900B82F2FEF30E086
:100760000E942C06A30192010E949A04122F032FCB
:10077000C22FD02F61E08CE00E940E01209709F07B
:1007800060C060E08CE00E94C20060E08AE00E94ED
:10079000C20062E070E080E090E00E94640161E0ED
:1007A0008AE00E94C200C1010197F1F760E08AE08F
:1007B0000E94C200F7016491E5EAF0E08491E82F1D
:1007C000F0E0EE0FFF1FE057FF4F8591949100E49A
:1007D00012E42FE030E0462F0E949C026115710563
:1007E0008105910529F06F5F7F4F8F4F9F4F9F705D
:1007F0000E9492052EEA37E44BE652E40E94EA0496
:100800000E945C056E3171050CF066C080910D018F
:100810009401281B310987FD3395C901880F991F61
:10082000880F991F0E948C0068EB7BE080E090E0CD
:100830000E946401C114D10409F47FCF0E9400001A
:100840007CCFCF3FD10511F461E09CCFE8E8F0E028
:100850008491833029F140F48130C1F08230D9F0A5
:10086000C038D1058CF78DCF873031F1883061F1F8
:100870008430B1F780918000806280938000812F66
:10088000902F90938B0080938A007FCF84B58068EF
:1008900084BD17BD7ACF84B5806284BD18BD75CF85
:1008A00080918000806880938000812F902F9093AA
:1008B00089008093880069CF8091B0008068809320
:1008C000B0001093B30061CF8091B000806280933C
:1008D000B0001093B40059CF80910C01F501E81BD2
:1008E000F10987FDF395CF01880F991F880F991F94
:1008F0000E948C0062E370E080E090E099CF8091EC
:1009000000018C3098F491E0980F9093000180934F
:100910000B0190E0FC01EE0FFF1FE80FF91FE25FF3
:10092000FE4F88EB9BE09283818308958FEF809345
:100930000B010895052E97FB1EF400940E94B1044C
:1009400057FD07D00E94B90407FC03D04EF40C9465
:10095000B10450954095309521953F4F4F4F5F4FD3
:10096000089590958095709561957F4F8F4F9F4F1B
:100970000895A1E21A2EAA1BBB1BFD010DC0AA1FE0
:10098000BB1FEE1FFF1FA217B307E407F50720F0F8
:10099000A21BB30BE40BF50B661F771F881F991F73
:1009A0001A9469F760957095809590959B01AC01BC
:1009B000BD01CF010895A29FB001B39FC001A39FC5
:1009C000700D811D1124911DB29F700D811D112488
:1009D000911D08950E94FE040C94E6050E94DF0517
:1009E00058F00E94D80540F029F45F3F29F00C949C
:1009F000CF0551110C941A060C94D5050E94F705E9
:100A000068F39923B1F3552391F3951B550BBB273D
:100A1000AA2762177307840738F09F5F5F4F220F82
:100A2000331F441FAA1FA9F335D00E2E3AF0E0E879
:100A300032D091505040E695001CCAF72BD0FE2FC3
:100A400029D0660F771F881FBB1F26173707480757
:100A5000AB07B0E809F0BB0B802DBF01FF2793580F
:100A60005F4F3AF09E3F510578F00C94CF050C94FF
:100A70001A065F3FE4F3983ED4F386957795679521
:100A8000B795F7959F5FC9F7880F911D9695879544
:100A900097F90895E1E0660F771F881FBB1F621763
:100AA00073078407BA0720F0621B730B840BBA0B21
:100AB000EE1F88F7E09508950E9463056894B111D0
:100AC0000C941A0608950E94FF0588F09F5798F02D
:100AD000B92F9927B751B0F0E1F0660F771F881F43
:100AE000991F1AF0BA95C9F714C0B13091F00E945D
:100AF0001906B1E008950C941906672F782F8827FE
:100B0000B85F39F0B93FCCF3869577956795B39583
:100B1000D9F73EF490958095709561957F4F8F4FF2
:100B20009F4F0895E89409C097FB3EF490958095F7
:100B3000709561957F4F8F4F9F4F9923A9F0F92FA3
:100B400096E9BB279395F695879577956795B79521
:100B5000F111F8CFFAF4BB0F11F460FF1BC06F5F07
:100B60007F4F8F4F9F4F16C0882311F096E911C019
:100B7000772321F09EE8872F762F05C0662371F03A
:100B800096E8862F70E060E02AF09A95660F771F4E
:100B9000881FDAF7880F9695879597F9089597F942
:100BA0009F6780E870E060E008959FEF80EC089513
:100BB00000240A941616170618060906089500243C
:100BC0000A9412161306140605060895092E0394B6
:100BD000000C11F4882352F0BB0F40F4BF2B11F42A
:100BE00060FF04C06F5F7F4F8F4F9F4F089557FD89
:100BF0009058440F551F59F05F3F71F04795880F8B
:100C000097FB991F61F09F3F79F087950895121621
:100C100013061406551FF2CF4695F1DF08C01616CD
:100C200017061806991FF1CF86957105610508947E
:100C30000895E894BB2766277727CB0197F9089595
:100C4000991B79E004C0991F961708F0961B881F1E
:100C50007A95C9F7809508950E94DB04B7FF08953F
:100C6000821B930B0895EE0FFF1F0590F491E02D6A
:060C70000994F894FFCF87
:00000001FF
